:020000040800F2
:100000006806002089010008230700081B07000874
:100010001F0700084D040008C90C0008000000007C
:10002000000000000000000000000000790B000844
:1000300051040008000000003F0B0008650C000898
:10004000A3010008A3010008A3010008A301000800
:10005000A3010008A3010008A3010008A3010008F0
:10006000A3010008A3010008A3010008A3010008E0
:10007000A3010008A3010008A3010008A3010008D0
:10008000A3010008A3010008A3010008A3010008C0
:10009000A3010008A3010008A3010008A3010008B0
:1000A000A3010008A3010008A3010008A3010008A0
:1000B000A3010008A3010008A3010008A301000890
:1000C000A3010008A3010008A3010008A301000880
:1000D000A3010008A3010008A3010008A301000870
:1000E00099040008A3010008A301000800F002F829
:1000F00000F03AF80AA090E8000C82448344AAF188
:100100000107DA4501D100F02FF8AFF2090EBAE885
:100110000F0013F0010F18BFFB1A43F0010318473B
:10012000F41C0000141D0000103A24BF78C878C1E8
:10013000FAD8520724BF30C830C144BF04680C60ED
:10014000704700000023002400250026103A28BF35
:1001500078C1FBD8520728BF30C148BF0B60704739
:100160001FB51FBD10B510BD00F031F81146FFF7E7
:10017000F7FF00F00DFE00F04FF803B4FFF7F2FFB9
:1001800003BC00F057F800000948804709480047C1
:10019000FEE7FEE7FEE7FEE7FEE7FEE7FEE7FEE737
:1001A000FEE7FEE704480549054A064B7047000094
:1001B000690C0008ED0000086800002068060020B7
:1001C000680200206802002070477047704775463B
:1001D00000F02CF8AE4605006946534620F00700B3
:1001E000854618B020B5FFF7DDFFBDE820404FF091
:1001F00000064FF000074FF000084FF0000B21F011
:100200000701AC46ACE8C009ACE8C009ACE8C009DD
:10021000ACE8C0098D46704710B50446AFF30080C6
:100220002046BDE81040FFF7A8BF00000048704717
:100230000800002001491820ABBEFEE7260002009E
:10024000704721B1826842F00102826003E0826857
:1002500022F0010282607047014600208A6802F0A5
:1002600004020AB1012000E0002070470146C86C7A
:1002700080B270470246002013680B400BB101208A
:1002800000E000207047014600208A6802F0080262
:100290000AB1012000E000207047000030B502469E
:1002A0000020002350680F4C20400D790C6844EA70
:1002B00005242043506090680B4C2040D1E9025443
:1002C0002C434D7944EA450420439060D06A20F4E1
:1002D00070000C7C641EE4B2234340EA0350D062F9
:1002E00030BD0000FFFEF0FFFDF7F1FFF0B5044662
:1002F0000D4600200021092D11DDE068A5F10A0658
:1003000006EB4607072606FA07F18843A5F10A0619
:1003100006EB460603FA06F10843E0600CE02069AC
:1003200005EB4507072606FA07F1884305EB450666
:1003300003FA06F108432061072A0FDA606B561EA4
:1003400006EB86071F2606FA07F18843561E06EBC2
:10035000860605FA06F10843606322E00D2A0FDAEB
:10036000206BD61F06EB86071F2606FA07F1884387
:10037000D61F06EB860605FA06F10843206310E057
:10038000E06AA2F10D0606EB86071F2606FA07F1C2
:100390008843A2F10D0606EB860605FA06F108432E
:1003A000E062F0BD816841F008018160704721B1D1
:1003B000826842F4A002826003E0826822F4A00214
:1003C00082607047816841F00401816070470000DD
:1003D0001FB50121082000F0BFFB0121084600F0F5
:1003E000BBFB48208DF80F004FF48040ADF80C00A7
:1003F00003208DF80E0003A9134800F0F5F80E2134
:10040000012000F0D1F84FF48040019001208DF8D8
:100410000A0000208DF808000C208DF8090001A8C2
:1004200000F078F84FF4A06000F0B4F928208DF8BF
:10043000000001208DF803008DF801008DF8020006
:10044000684600F06FF91FBD000C014000BFFEE7D9
:10045000704700B5034603E04FF47A7000F005F8EA
:10046000181EA3F10103F7D100BD00EBC001C900C4
:100470004FF0E0225161002191610521116100BF1F
:100480004FF0E021096901F480310029F8D00421FE
:100490004FF0E0221161704710B54FF4804000F03A
:1004A00025F8012814D181030A4800F028F958B929
:1004B00000200949086009480068401C0749086095
:1004C0004FF4FA70FFF7C5FF4FF4804000F008F8D2
:1004D00010BD0000000C01400400002000000020BE
:1004E00001490860704700001404014001460020E3
:1004F0000022074B1B6803EA0102054B14331B68FB
:100500000B4013B10AB1012000E000207047000049
:1005100000040140002123498279002A3AD00A468A
:10052000126803689A430B461A600A1D1268036832
:100530009A430B1D1A60027911440A6803681A4332
:100540000A60184A0832126803689A43154B083348
:100550001A601A1D126803689A43124B0C331A6012
:100560004279102A0ED11A1F126803681A430D4BE4
:1005700008331A601A1D126803681A43094B0C33BA
:100580001A600DE00749427911440A6803681A436A
:100590000A6005E0027911440A6803689A430A6018
:1005A000704700000004014030B500228B071C0F8B
:1005B0000F2303FA04F20B4B8C1053F824309343AF
:1005C000084C8D1044F8253023468C1053F8243005
:1005D0008C07240F00FA04F42343024C8D1044F8D6
:1005E000253030BD080001402DE9F04102460025CC
:1005F0000026002000230024002791F803C00CF0FF
:100600000F0591F803C00CF0100CBCF1000F03D0E3
:1006100091F802C04CEA050591F800C0BCF1000F4A
:1006200031D0146800202BE04FF0010C0CFA00F3DD
:10063000B1F800C00CEA03069E4220D183004FF0BF
:100640000F0C0CFA03F7BC4305FA03FC4CEA040454
:1006500091F803C0BCF1280F06D14FF0010C0CFA41
:1006600000FCC2F814C00AE091F803C0BCF1480FC6
:1006700005D14FF0010C0CFA00FCC2F810C0401C70
:100680000828D1D31460B1F800C0BCF1FF0F34DDED
:10069000546800202EE000F1080C4FF0010808FA21
:1006A0000CF3B1F800C00CEA03069E4221D183008E
:1006B0004FF00F0C0CFA03F7BC4305FA03FC4CEAAD
:1006C000040491F803C0BCF1280F05D100F1080C17
:1006D00008FA0CF8C2F8148091F803C0BCF1480F76
:1006E00007D100F1080C4FF0010808FA0CF8C2F825
:1006F0001080401C0828CED35460BDE8F08102462B
:10070000002093680B400BB1012000E000207047EF
:100710000AB1016100E04161704700BFFEE700BF20
:10072000FEE7704770B5002100230F22C47804B3A0
:10073000154C246804F4E064C4F5E064210AC1F1B6
:100740000403CA40447804FA03F184781440214336
:1007500009010E4C0678A155047804F01F05012408
:10076000AC4005786D11AD0005F1E025C5F80041FC
:1007700009E0047804F01F050124AC40044D06781C
:10078000761145F8264070BD0CED00E000E400E075
:1007900080E100E002490143024A11607047000015
:1007A0000000FA050CED00E070B500240EE0002119
:1007B000204600F0F0F8002504E0002000F0AFF93A
:1007C000681CC5B2802DF8DB601CC4B2082CEEDBBF
:1007D00070BD000008B50121082000F0BDF914200B
:1007E0008DF8030003208DF802004FF48070ADF8FF
:1007F000000069460A48FFF7F7FE4FF40070ADF8B5
:10080000000069460648FFF7EFFE01221102044886
:10081000FFF77EFF012251020148FFF779FF08BD73
:10082000000C014070B50546002415E080202041F1
:1008300000EA05024FF400710E48FFF769FF01223C
:1008400011020C48FFF764FF00224FF48071094841
:10085000FFF75EFF601CC4B2082CE7DB0122110227
:100860000448FFF755FF00224FF480710148FFF75D
:100870004FFF70BD000C014010B5012251020A4823
:10088000FFF746FF012211020748FFF741FF002250
:100890004FF400710448FFF73BFF00224FF48071D2
:1008A0000148FFF735FF10BD000C014010B50022D4
:1008B0004FF400710648FFF72BFF01221102044894
:1008C000FFF726FF012251020148FFF721FF10BD6B
:1008D000000C014070B5002406E0002500E06D1C0E
:1008E000B5F57A7FFBD3641CB4F57A7FF5D3FFF7B7
:1008F00071FFAE2000F003F9D52000F000F9802050
:1009000000F0FDF8A82000F0FAF83F2000F0F7F81A
:10091000D32000F0F4F8002000F0F1F8402000F0BF
:10092000EEF8A12000F0EBF8C82000F0E8F8DA209B
:1009300000F0E5F8122000F0E2F8812000F0DFF886
:10094000CF2000F0DCF8D92000F0D9F8F12000F039
:10095000D6F8DB2000F0D3F8302000F0D0F8A42047
:1009600000F0CDF8A62000F0CAF88D2000F0C7F8FE
:10097000142000F0C4F8AF2000F0C1F8FFF714FF16
:1009800070BD10B50246012000E050430B1EA1F1DE
:100990000101FAD110BD70B505460C4645F0B00016
:1009A00000F0ADF8102141EA141000F0A8F804F0AE
:1009B0000F0000F0A4F870BD2DE9F04105460E4689
:1009C0001746721ED206110E6A1E5206100EFFF74F
:1009D000E2FF002409E0A7F12001134A02EB011114
:1009E000085D00F09CF8601CC4B2082CF3DB721E9A
:1009F000D206110E6A1E012303EB4202D0B2FFF7AA
:100A0000CAFF00240BE0A7F12001074A02EB011204
:100A100004F10801505C00F082F8601CC4B2082C9C
:100A2000F1DBBDE8F0810000241800082DE9F04753
:100A300080460E4617461D46002415E0281B411E21
:100A40000A20FFF79EFFB7FBF0F00A21B0FBF1F29E
:100A500001FB120000F130093019C1B24A4640468C
:100A6000FFF7AAFF601CC4B2AC42E7DBBDE8F08729
:100A70002DE9F0478146884615461E46002D06DBC7
:100A80002B2241464846FFF797FF2F4605E02D22CF
:100A900041464846FFF790FF6F42002417E0301BA5
:100AA000411E0A20FFF76DFFB7FBF0F00A21B0FBF3
:100AB000F1F201FB120000F1300A08EB0400401CC7
:100AC000C1B252464846FFF777FF601CC4B2B44239
:100AD000E5DBBDE8F0872DE9F04107460E461546F7
:100AE000002407E02A5D3019C1B23846FFF764FFE1
:100AF000601CC4B2285D0028F4D1BDE8F08110B5B7
:100B00000446FFF7B9FE7820FFF78CFE0020FFF7C0
:100B100089FE2046FFF786FEFFF7C8FE10BD10B520
:100B20000446FFF7A9FE7820FFF77CFE4020FFF780
:100B300079FE2046FFF776FEFFF7B8FE10BD70473E
:100B400001460020034A506820F4404008435060AA
:100B5000704700000010024029B1064A9269024322
:100B6000044B9A6104E0034A92698243014B9A6103
:100B70007047000000100240704710B500F002F806
:100B800010BD00000CB500200190009033480068B3
:100B900040F480303149086000BF3048006800F4FC
:100BA000003000900198401C0190009818B90198FD
:100BB000B0F5A06FF1D12948006800F4003010B101
:100BC0000120009001E0002000900098012843D10E
:100BD0002348006840F0100021490860084600687A
:100BE00020F0030008600846006840F0020008603A
:100BF0001A484068194948600846406848600846F5
:100C0000406840F4806048600846406820F47C10EA
:100C100048600846406840F4E810486008460068AC
:100C200040F08070086000BF0C48006800F0007061
:100C30000028F9D00948406820F0030007494860BF
:100C40000846406840F00200486000BF0348406822
:100C500000F00C000828F9D10CBD00000010024083
:100C6000002002407047000010B51348006840F0B3
:100C700001001149086008464068104908400E49C3
:100C80004860084600680E4908400B49086008465D
:100C9000006820F4802008600846406820F4FE00C8
:100CA00048604FF41F008860FFF767FF4FF0006057
:100CB0000449086010BD0000001002400000FFF869
:100CC000FFFFF6FE08ED00E000BFFEE710B50121D2
:100CD0000648FFF76CFB00BF02210448FFF7CAFA81
:100CE0000028F9D00148FFF7C1FA10BD00240140E7
:100CF00000B587B001214802FFF72EFF0121042033
:100D0000FFF72AFF4FF44040FFF71AFF00208DF84D
:100D10001B000120ADF8180003208DF81A0006A969
:100D20001948FFF761FC0723012200211748FFF74C
:100D3000DDFA00208DF8090004904FF46020039044
:100D40000020019001208DF8140000208DF808008B
:100D500001A90E48FFF7A2FA01210C48FFF771FA2A
:100D60000A48FFF71FFB00BF0848FFF78CFA01286D
:100D7000FAD00648FFF726FB00BF0448FFF76CFADD
:100D80000128FAD007B000BD00080140002401404E
:100D90000EB5FFF7ADFFFFF79DFDFFF719FBFFF75E
:100DA00003FD00210F4688468A46002540F27C64F8
:100DB00042F21076894600200290A4A20621022069
:100DC000FFF789FE40E10223A148082102680120C3
:100DD000FFF72CFE9E48D0F800B00BEBDB70401004
:100DE000ABEB4000012801D19AA000E09BA0024695
:100DF00001210846FFF76FFEBAF5967F74D14FF0D8
:100E0000000A0022974B3846414600F02FFA074669
:100E1000884695480068401C93490860384641461A
:100E200000F07CFB044602238F480721026804205F
:100E3000FFF7FCFD40F2A460844209DCB4F5C86F02
:100E400006DBA9EB06003C2802DCA4F287600290D6
:100E50000027B8460298241A042308210220029A87
:100E6000FFF706FE0423224601211846FFF7DEFDA8
:100E7000A9EB06003C2804DB7CA201210320FFF73C
:100E80002AFE7349086800EBD0714910A0EB4101BC
:100E900001293DD1A9EB06013C2939DC40F2AE60C5
:100EA000844208DCB4F5C86F05DB74A2012103207D
:100EB000FFF711FEA8E0B4F5AF6F08DCB4F5A56F3D
:100EC00005DB72A201210320FFF705FE9CE040F242
:100ED000CD50844209DCB4F5AF6F06DD6FA201216D
:100EE0000320FFF7F8FD8FE092E0B4F5C86F09DC4E
:100EF00040F2CD50844205DD6CA201210320FFF7B2
:100F0000EAFD81E06DA201210320FFF7E4FD7BE013
:100F10004F49086800EBD0714910A0EB410100294E
:100F200072D1A9EB06013C296EDC40F2AE6084422E
:100F300008DCB4F5C86F05DB50A201210320FFF7E0
:100F4000CAFD61E040F21450844209DB40F2535084
:100F5000844205DC5CA201210320FFF7BCFD53E0C5
:100F600040F2D350844208DBB4F5BE6F05DC59A2D1
:100F700001210320FFF7AFFD46E0B4F5AF6F09DDB7
:100F800040F2AA50844205DC55A201210320FFF75C
:100F9000A2FD39E040F25450844208DBB4F5AC6F56
:100FA00005DC52A201210320FFF795FD2CE0B4F5EA
:100FB000AC6F08DDB4F5AF6F05DC4FA20121032053
:100FC000FFF789FD20E040F2AB50844209DB40F29C
:100FD000B950844205DC4BA201210320FFF77BFDC1
:100FE00012E040F2BA50844209DB40F2D25084420F
:100FF00005DC47A201210320FFF76DFD04E02FA2CD
:1010000001210320FFF767FD42F210764FF000093F
:10101000FFF75CFE054604232A4601210220FFF764
:1010200005FD4D4500DDA946B54200DA2E462846AD
:1010300000F0A3FA3A464346CDE9000100F06EF80D
:10104000074688460AF1010ABDE600006456000022
:101050000000002041204D4F4445000042204D4FEC
:101060004445000000C07240040000205343414E3C
:101070004E494E472020202000000000454D50548E
:101080005920202020202020000000003120595528
:10109000414E2020202020200000000035204A4919
:1010A000414F2020202020200000000031204A490C
:1010B000414F20202020202000000000554E4B4EA4
:1010C0004F574E2020202000315955414E3E315976
:1010D00055414E00314A49414F3E314A49414F0046
:1010E000354A49414F3E354A49414F00354A494109
:1010F0004F3E315955414E00315955414E3E354ACA
:1011000049414F00314A49414F3E354A49414F001C
:10111000354A49414F3E314A49414F0010B591EAA5
:10112000030F48BF83F0004300F19A82841A71EBE9
:10113000030C05D2121943EB0C03001B61EB0C01ED
:10114000DFF824E14FEA1154A4EB135C1EEA430FCD
:1011500018BF9EEA445F73D023EA0E03DCF1200E31
:1011600021EA045143F4801332D322FA0CFE10EB2F
:101170000E0023FA0CFE41EB0E01CCF1200E03FA17
:101180000EFE10EB0E0051F10001B1F5801FCCF105
:10119000200E32D201EB045112FA0EF2BDE81040DB
:1011A00058BF7047401C38BF5FEA420218BF704703
:1011B000002814BF20F0010041F100014FEA410373
:1011C00013F5001F38BF7047A1F1C04100F03ABAD3
:1011D000012A43EB0302ACF1200CDCF11F0E32BFFD
:1011E0004FF0000E23FA0CF310EB030041EB045117
:1011F000B4EB115FD0D0A1EB045101F58011490887
:101200005FEA300001EB04510ED350F1000038BF0B
:1012100012FA0EFE08D1BDE81040C9E7401C38BFE5
:101220005FEA4202CAD1C3E7BDE810404FEA41037A
:1012300013F5001F38BF7047A1F1C04100F002BA9A
:101240009EEA445F08D011EA5E0FBDE8104004BF7B
:1012500001F0004100207047BDE8104070B500F07B
:10126000A3F900BF64FBBE3E0000E0FF2DE9C041D2
:1012700030B4DFF8A0C23CEA111418BF3CEA1314E2
:1012800000F0EC8081EA03051CEA111444EAD574ED
:1012900018BF1CEA131500F0C780A4EB05044FF03B
:1012A000004545EAC12145EAC32341EA505143EADA
:1012B000525304F17F74994204F500344FEAC02080
:1012C0004FEAC22208BF904200F09C804FEA1365AB
:1012D0000FF24016765D4FEA134506FB05F7C7F19E
:1012E000807706FB07F74FEAD737A7FB03687642FC
:1012F000C8F58038A7FB06CE38BFA8F1010807FB68
:1013000008E64FF0000EA6FB028CE6FB03CEDCF1F4
:10131000000CCEF1004E38BFAEF1010EA6FB0C580A
:101320004FF000074FF00005E6FB0E87A1FB08C653
:10133000A0FB07CE16EB0E0645F10005E1FB0765A5
:1013400015F1E04E7EBFA4F580345FEA46066D419C
:1013500016F1800745F100054FEA17274FEA0666A8
:1013600047EA0567A6F1DE46B6F1805F4FEA15252C
:101370001FD9384624F0010C05EBC471BCF1FE6F97
:1013800001EB0C1102D8F0BCBDE8008124425CBF27
:1013900001F5801E9EEAC47F02D4F0BCBDE8008146
:1013A000244238D4F0BCA1F1C041BDE8004100F0B6
:1013B00049B94FEAD22242EA43524FEAD323A7FB6C
:1013C00002864FEAD02040EA415007FB03661EEA3E
:1013D0000E0F4FEAD12105FB026658BFA6EB00565F
:1013E000B6EB00564FEA520E4EEAC37E18EB0E0ED5
:1013F00056EB530EBDD518EB02085E417F1C55F12C
:101400000005B6E74FF480154FF000074FF00006D7
:101410004FF00008ADE7F0BC4FF0000001F1C04113
:1014200001F00041BDE8008111EA0C1F0CEA131520
:1014300000D00CE013EA0C1F00F025804FF00000F4
:10144000F0BC81EA030101F00041BDE80081F0BC7D
:10145000BDE8004181EA030100F0F4B8F0BCBDE84A
:10146000004170B500F0A0F8097EFC3E00F007B81E
:1014700081EA03014FF0000001F00041704781EA6A
:10148000030100F0DFB8F0BCBDE800414FF0000000
:1014900021497047FFFDFBF9F7F5F4F2F0EEEDEBB3
:1014A000E9E8E6E4E3E1E0DEDDDBDAD8D7D5D4D362
:1014B000D1D0CFCDCCCBCAC8C7C6C5C4C2C1C0BFAE
:1014C000BEBDBCBBBAB9B8B7B6B5B4B3B2B1B0AFB4
:1014D000AEADACABAAA9A8A8A7A6A5A4A3A3A2A198
:1014E000A09F9F9E9D9C9C9B9A9999989797969553
:1014F00095949393929191908F8F8E8E8D8C8C8BEF
:101500008B8A898988888787868585848483838276
:10151000828181800000FF070000F87F4FEA4103CD
:101520004FEA5353A3F58063D3F11E03C8BFD3F131
:10153000210C0CDD4FF0004242EAC12242EA505237
:1015400032FA03FC8CEAE17CACEBE1707047102BC3
:10155000C4BF0020704703F5787CBCF1FF3F04D086
:101560006FF0004282EA2100704770B500F01CF86D
:101570004992248000207047F2E710F0004248BFF3
:101580004042B0FA80F310FA03F10AD0C3F11D0310
:1015900003F580634FEA415002EB035202EBD12185
:1015A00070474FF0000070470EF1020E2EF0030E50
:1015B0005EF8046B364205D4012A43EB030515F5AA
:1015C000001F12D8012841EB010C1CF5001F0CD89C
:1015D0000ED14FEAD17C15F5001F0CEB4C0C0CF131
:1015E000020C08BF4CEBD37C04E04FF0080C01E088
:1015F0004FEAD37C0CEB4C0526FA05F606F00706FD
:10160000B6F1040C06D20EEB860CBDE870404CF02F
:10161000010C6047DFE80CF0090B02024FF00041BB
:101620004FF00000A1F5002170BD194610460128B9
:1016300051EB010418BFD4F5001484BF002001F061
:10164000004170BD0808A0F500114FEA3101704754
:1016500010B591EA030F48BF83F000433FF566AD34
:10166000841A71EB030C07D212198CF0004C43EB77
:101670000C03001B61EB0C01DFF8A4E14FEA1154ED
:10168000A4EB135C1EEA430F18BF9EEA445F00F010
:10169000B08023EA6E03524221EA0451C3EB6E0389
:1016A00038BF5B1EDCF1200E25D322FA0CFE10EBB6
:1016B0000E0043FA0CFE41EB0E01CCF1200E03FAB2
:1016C0000EFE10EB0E0051F10001CCF1200E29D4DA
:1016D00012FA0EF201EB0451BDE8104058BF7047FA
:1016E000401C1CBFB2F1004F704700280CBF491CC2
:1016F00020F00100704712EB020E43EB030218BF0B
:101700004FF0010E4EEA4202ACF1200CDCF11E0E4D
:1017100054D943FA0CFE10EB0E0051F1FF31CCF11D
:101720001E0ED5D50EF1010E12FA0EFE404141EB10
:10173000010101EB445C5FEA5C5C10D910EBDE70E8
:1017400001EB045138BFBEF1004FBDE8104018BF97
:10175000704700280CBF491C20F00100704730D2B0
:101760004FEAD42C11F5001124F400641BD0B1FA17
:1017700081F20B3AA41AA41ED2F12003914030FA50
:1017800003F31943904001EBCC71002C01EB0451A1
:10179000BDE81040A8BF704701F1C0414FF0000004
:1017A00001F000417047B0FA80F310FA03F100D164
:1017B00010BDE41A173C4805C90AE4E701EB0451DF
:1017C00010BD491001EB0451BDE810404FEA300054
:1017D00002E04FF0000170474A0008BF0042F8D015
:1017E000B2F5001F28BF704701F000414FF0000024
:1017F00070479EEA445F07D011EA5E0FBDE81040D3
:1018000004BF002100207047BDE8104070B5FFF70D
:10181000CBFE00BF40DFF63E83F00041104670472C
:101820000000E0FF000000000000000000000000D9
:1018300000000000000000F800000000000000337D
:101840003000000000100C06100C06000000000024
:101850000000000040C07840C0784000043F04040D
:101860003F040400007088FC08300000001820FFCE
:10187000211E0000F008F000E018000000211C0309
:101880001E211E0000F00888700000001E21232485
:101890001927211010160E000000000000000000A3
:1018A00000000000000000E0180402000000000733
:1018B0001820400000020418E0000000004020183A
:1018C00007000000404080F0804040000202010F0D
:1018D00001020200000000F0000000000101011FF1
:1018E00001010100000000000000000080B0700055
:1018F00000000000000000000000000000010101E5
:101900000101010100000000000000000030300073
:10191000000000000000000080601804006018064D
:101920000100000000E010080810E000000F102087
:1019300020100F00001010F8000000000020203FD1
:10194000202000000070080808887000003028245B
:1019500022213000003008888848300000182020FC
:1019600020110E000000C02010F800000007042421
:10197000243F240000F80888880808000019212066
:1019800020110E0000E0108888180000000F1120C0
:1019900020110E0000380808C83808000000003F79
:1019A000000000000070880808887000001C2221D8
:1019B00021221C0000E010080810E0000000312285
:1019C00022110F00000000C0C00000000000003025
:1019D0003000000000000080000000000000806077
:1019E00000000000000080402010080000010204F8
:1019F00008102000404040404040400004040404DF
:101A0000040404000008102040800000002010089A
:101A100004020100007048080808F00000000030CF
:101A200036010000C030C828E810E000071827245D
:101A300023140B000000C038E0000000203C23020B
:101A40000227382008F8888888700000203F20206E
:101A500020110E00C03008080808380007182020A0
:101A60002010080008F808080810E000203F202097
:101A700020100F0008F88888E8081000203F202078
:101A80002320180008F88888E8081000203F20006C
:101A900003000000C03008080838000007182020A4
:101AA000221E020008F808000008F808203F210163
:101AB00001213F20000808F8080800000020203F0E
:101AC0002020000000000808F8080800C08080807E
:101AD0007F00000008F888C028180800203F200177
:101AE0002638200008F8080000000000203F2020D1
:101AF0002020300008F8F800F8F80800203F003FE8
:101B0000003F200008F830C00008F808203F2000FF
:101B100007183F00E01008080810E0000F10202010
:101B200020100F0008F808080808F000203F2101E5
:101B300001010000E01008080810E0000F1824243C
:101B400038504F0008F8888888887000203F2000AF
:101B5000030C302000708808080838000038202165
:101B600021221C00180808F8080818000000203F6F
:101B70002000000008F808000008F808001F2020D6
:101B800020201F000878880000C8380800000738A7
:101B90000E010000F80800F80008F800033C0700F8
:101BA000073C0300081868808068180820302C0360
:101BB000032C30200838C800C83808000000203F37
:101BC0002000000010080808C83808002038262126
:101BD00020201800000000FE020202000000007F2A
:101BE00040404000000C30C0000000000000000138
:101BF0000638C00000020202FE0000000040404023
:101C00007F00000000000402020204000000000047
:101C100000000000000000000000000080808080C4
:101C200080808080000202040000000000000000AC
:101C30000000000000008080808000000019242245
:101C400022223F2008F8008080000000003F112081
:101C500020110E000000008080800000000E112086
:101C600020201100000000808088F800000E112064
:101C700020103F200000808080800000001F222272
:101C800022221300008080F0888888180020203FDE
:101C9000202000000000808080808000006B9494F1
:101CA0009493600008F8008080800000203F2100AD
:101CB00000203F2000809898000000000020203F76
:101CC00020200000000000809898000000C0808064
:101CD000807F000008F8000080808000203F240200
:101CE0002D302000000808F8000000000020203FF0
:101CF000202000008080808080808000203F2000A5
:101D00003F20003F8080008080800000203F210035
:101D100000203F200000808080800000001F2020E5
:101D200020201F00808000808000000080FFA12014
:101D300020110E000000008080808000000E112025
:101D400020A0FF80808080008080800020203F21B4
:101D50002000010000008080808080000033242467
:101D600024241900008080E0808000000000001F13
:101D7000202000008080000000808000001F2020C4
:101D800020103F20808080000080808000010E3085
:101D90000806010080800080008080800F300C03E6
:101DA0000C300F0000808000808080000020312EE9
:101DB0000E312000808080000080808080818E70C5
:101DC0001806010000808080808080000021302C77
:101DD0002221300000000000807C02020000000090
:101DE000003F404000000000FF0000000000000035
:101DF000FF0000000002027C800000000040403F25
:101E000000000000000601010202040400000000BE
:101E100000000000341E0008000000200800000040
:101E2000280100083C1E0008080000206006000091
:0C1E300044010008010000000000000058
:04000005080000ED02
:00000001FF
